{"abi":[{"type":"constructor","inputs":[{"name":"_collateralToken","type":"address","internalType":"address"},{"name":"_stableToken","type":"address","internalType":"address"},{"name":"_oracle","type":"address","internalType":"address"}],"stateMutability":"nonpayable"},{"type":"function","name":"LIQUIDATION_BONUS","inputs":[],"outputs":[{"name":"","type":"uint256","internalType":"uint256"}],"stateMutability":"view"},{"type":"function","name":"LIQUIDATION_THRESHOLD","inputs":[],"outputs":[{"name":"","type":"uint256","internalType":"uint256"}],"stateMutability":"view"},{"type":"function","name":"LTV","inputs":[],"outputs":[{"name":"","type":"uint256","internalType":"uint256"}],"stateMutability":"view"},{"type":"function","name":"PRECISION","inputs":[],"outputs":[{"name":"","type":"uint256","internalType":"uint256"}],"stateMutability":"view"},{"type":"function","name":"accrueInterest","inputs":[{"name":"user","type":"address","internalType":"address"}],"outputs":[],"stateMutability":"nonpayable"},{"type":"function","name":"borrow","inputs":[{"name":"amount","type":"uint256","internalType":"uint256"}],"outputs":[],"stateMutability":"nonpayable"},{"type":"function","name":"borrowRate","inputs":[],"outputs":[{"name":"","type":"uint256","internalType":"uint256"}],"stateMutability":"view"},{"type":"function","name":"collateralToken","inputs":[],"outputs":[{"name":"","type":"address","internalType":"contract IERC20"}],"stateMutability":"view"},{"type":"function","name":"deposit","inputs":[{"name":"amount","type":"uint256","internalType":"uint256"}],"outputs":[],"stateMutability":"nonpayable"},{"type":"function","name":"getHealthFactor","inputs":[{"name":"user","type":"address","internalType":"address"}],"outputs":[{"name":"","type":"uint256","internalType":"uint256"}],"stateMutability":"view"},{"type":"function","name":"getUserCollateral","inputs":[{"name":"user","type":"address","internalType":"address"}],"outputs":[{"name":"","type":"uint256","internalType":"uint256"}],"stateMutability":"view"},{"type":"function","name":"getUserDebt","inputs":[{"name":"user","type":"address","internalType":"address"}],"outputs":[{"name":"","type":"uint256","internalType":"uint256"}],"stateMutability":"view"},{"type":"function","name":"lastBorrowTimestamp","inputs":[{"name":"","type":"address","internalType":"address"}],"outputs":[{"name":"","type":"uint256","internalType":"uint256"}],"stateMutability":"view"},{"type":"function","name":"liquidate","inputs":[{"name":"user","type":"address","internalType":"address"},{"name":"repayAmount","type":"uint256","internalType":"uint256"}],"outputs":[],"stateMutability":"nonpayable"},{"type":"function","name":"priceOracle","inputs":[],"outputs":[{"name":"","type":"address","internalType":"contract MockPriceOracle"}],"stateMutability":"view"},{"type":"function","name":"stableToken","inputs":[],"outputs":[{"name":"","type":"address","internalType":"contract IERC20"}],"stateMutability":"view"},{"type":"function","name":"totalBorrows","inputs":[],"outputs":[{"name":"","type":"uint256","internalType":"uint256"}],"stateMutability":"view"},{"type":"function","name":"totalDeposits","inputs":[],"outputs":[{"name":"","type":"uint256","internalType":"uint256"}],"stateMutability":"view"},{"type":"function","name":"withdraw","inputs":[{"name":"amount","type":"uint256","internalType":"uint256"}],"outputs":[],"stateMutability":"nonpayable"},{"type":"event","name":"Borrowed","inputs":[{"name":"user","type":"address","indexed":true,"internalType":"address"},{"name":"amount","type":"uint256","indexed":false,"internalType":"uint256"}],"anonymous":false},{"type":"event","name":"Deposited","inputs":[{"name":"user","type":"address","indexed":true,"internalType":"address"},{"name":"amount","type":"uint256","indexed":false,"internalType":"uint256"}],"anonymous":false},{"type":"event","name":"Liquidated","inputs":[{"name":"liquidator","type":"address","indexed":true,"internalType":"address"},{"name":"user","type":"address","indexed":true,"internalType":"address"},{"name":"debtRepaid","type":"uint256","indexed":false,"internalType":"uint256"},{"name":"collateralSeized","type":"uint256","indexed":false,"internalType":"uint256"}],"anonymous":false},{"type":"event","name":"Repaid","inputs":[{"name":"user","type":"address","indexed":true,"internalType":"address"},{"name":"amount","type":"uint256","indexed":false,"internalType":"uint256"}],"anonymous":false},{"type":"event","name":"Withdrawn","inputs":[{"name":"user","type":"address","indexed":true,"internalType":"address"},{"name":"amount","type":"uint256","indexed":false,"internalType":"uint256"}],"anonymous":false},{"type":"error","name":"AmountZero","inputs":[]},{"type":"error","name":"HealthFactorOk","inputs":[]},{"type":"error","name":"HealthFactorTooLow","inputs":[]},{"type":"error","name":"InsufficientCollateral","inputs":[]},{"type":"error","name":"InsufficientLiquidity","inputs":[]},{"type":"error","name":"ReentrancyGuardReentrantCall","inputs":[]},{"type":"error","name":"SafeERC20FailedOperation","inputs":[{"name":"token","type":"address","internalType":"address"}]},{"type":"error","name":"ZeroAddress","inputs":[]}],"bytecode":{"object":"0x60e060405266b1a2bc2ec500005f55348015610019575f80fd5b50604051610fd8380380610fd8833981016040819052610038916100e1565b60017f9b779b17422d0df92223018b32b4d1fa46e071723d6817e2486d003becc55f00556001600160a01b038316158061007957506001600160a01b038216155b8061008b57506001600160a01b038116155b156100a95760405163d92e233d60e01b815260040160405180910390fd5b6001600160a01b0392831660805290821660a0521660c052610121565b80516001600160a01b03811681146100dc575f80fd5b919050565b5f805f606084860312156100f3575f80fd5b6100fc846100c6565b925061010a602085016100c6565b9150610118604085016100c6565b90509250925092565b60805160a05160c051610e5c61017c5f395f81816101570152610a8701525f81816101e8015281816106b3015281816108c001526109db01525f818161021e015281816103c90152818161057c01526107990152610e5c5ff3fe608060405234801561000f575f80fd5b506004361061011c575f3560e01c8063a9d75b2b116100a9578063bcbaf4871161006e578063bcbaf4871461027b578063c5ebeaec1461028e578063c914b437146102a1578063e65896c9146102a9578063fe6bcd7c146102d1575f80fd5b8063a9d75b2b146101e3578063aaf5eb681461020a578063b2016bd414610219578063b6b55f2514610240578063b6f7132f14610253575f80fd5b806347bd3718116100ef57806347bd3718146101ae57806362965d8e146101b75780637d882097146101bf57806390a8ae9b146101c85780639198e515146101d0575f80fd5b80631f243853146101205780632630c12f146101525780632e1a7d4d146101915780633574d4c4146101a6575b5f80fd5b61013f61012e366004610d1a565b60016020525f908152604090205481565b6040519081526020015b60405180910390f35b6101797f000000000000000000000000000000000000000000000000000000000000000081565b6040516001600160a01b039091168152602001610149565b6101a461019f366004610d3a565b6102e4565b005b61013f600581565b61013f60055481565b61013f604b81565b61013f60045481565b61013f605081565b6101a46101de366004610d1a565b61043f565b6101797f000000000000000000000000000000000000000000000000000000000000000081565b61013f670de0b6b3a764000081565b6101797f000000000000000000000000000000000000000000000000000000000000000081565b6101a461024e366004610d3a565b610547565b61013f610261366004610d1a565b6001600160a01b03165f9081526002602052604090205490565b6101a4610289366004610d51565b61062a565b6101a461029c366004610d3a565b610822565b61013f5f5481565b61013f6102b7366004610d1a565b6001600160a01b03165f9081526003602052604090205490565b61013f6102df366004610d1a565b610a50565b6102ec610b69565b805f0361030c576040516365e52d5160e11b815260040160405180910390fd5b335f908152600260205260409020548181101561033c57604051633a23d82560e01b815260040160405180910390fd5b335f908152600260205260408120805484929061035a908490610d8d565b925050819055508160045f8282546103729190610d8d565b9091555050335f90815260036020526040902054156103bc57670de0b6b3a764000061039d33610a50565b10156103bc5760405163317416e560e11b815260040160405180910390fd5b6103f06001600160a01b037f0000000000000000000000000000000000000000000000000000000000000000163384610b84565b60405182815233907f7084f5476618d8e60b11ef0d7d3f06914655adb8793e28ff7f018d4c76d505d59060200160405180910390a25061043c60015f80516020610e0783398151915255565b50565b6001600160a01b0381165f9081526001602052604081205490819003610463575050565b5f61046e8242610d8d565b9050805f0361047c57505050565b6001600160a01b0383165f90815260036020526040812054908190036104a25750505050565b5f670de0b6b3a76400006301e13380845f54856104bf9190610da6565b6104c99190610da6565b6104d39190610dbd565b6104dd9190610dbd565b6001600160a01b0386165f90815260036020526040812080549293508392909190610509908490610ddc565b925050819055508060055f8282546105219190610ddc565b9091555050506001600160a01b039093165f908152600160205260409020429055505050565b61054f610b69565b805f0361056f576040516365e52d5160e11b815260040160405180910390fd5b6105a46001600160a01b037f000000000000000000000000000000000000000000000000000000000000000016333084610bc3565b335f90815260026020526040812080548392906105c2908490610ddc565b925050819055508060045f8282546105da9190610ddc565b909155505060405181815233907f2da466a7b24304f47e87fa2e1e5a81b9831ce54fec19055ce277ca2f39ba42c49060200160405180910390a261043c60015f80516020610e0783398151915255565b610632610b69565b670de0b6b3a764000061064483610a50565b106106625760405163085048a960e21b815260040160405180910390fd5b805f03610682576040516365e52d5160e11b815260040160405180910390fd5b6001600160a01b0382165f90815260036020526040902054808211156106a6578091505b6106db6001600160a01b037f000000000000000000000000000000000000000000000000000000000000000016333085610bc3565b6001600160a01b0383165f9081526003602052604081208054849290610702908490610d8d565b925050819055508160055f82825461071a9190610d8d565b909155505f9050606461072e600582610ddc565b6107389085610da6565b6107429190610dbd565b6001600160a01b0385165f9081526002602052604081208054929350839290919061076e908490610d8d565b925050819055508060045f8282546107869190610d8d565b909155506107c090506001600160a01b037f0000000000000000000000000000000000000000000000000000000000000000163383610b84565b60408051848152602081018390526001600160a01b0386169133917f1f0c6615429d1cdae0dfa233abf91d3b31cdbdd82c8081389832a61e1072f1ea910160405180910390a3505061081e60015f80516020610e0783398151915255565b5050565b61082a610b69565b805f0361084a576040516365e52d5160e11b815260040160405180910390fd5b335f90815260026020908152604080832054600390925282205490916064610873604b85610da6565b61087d9190610dbd565b90508061088a8584610ddc565b11156108a957604051633a23d82560e01b815260040160405180910390fd5b6040516370a0823160e01b815230600482015284907f00000000000000000000000000000000000000000000000000000000000000006001600160a01b0316906370a0823190602401602060405180830381865afa15801561090d573d5f803e3d5ffd5b505050506040513d601f19601f820116820180604052508101906109319190610def565b10156109505760405163bb55fd2760e01b815260040160405180910390fd5b335f908152600360205260408120805486929061096e908490610ddc565b925050819055508360055f8282546109869190610ddc565b9091555050335f818152600160205260409020429055670de0b6b3a7640000906109af90610a50565b10156109ce5760405163317416e560e11b815260040160405180910390fd5b610a026001600160a01b037f0000000000000000000000000000000000000000000000000000000000000000163386610b84565b60405184815233907fac59582e5396aca512fa873a2047e7f4c80f8f55d4a06cb34a78a0187f62719f9060200160405180910390a250505061043c60015f80516020610e0783398151915255565b6001600160a01b0381165f908152600260209081526040808320546003909252822054808303610a8457505f199392505050565b5f7f00000000000000000000000000000000000000000000000000000000000000006001600160a01b03166398d5fdca6040518163ffffffff1660e01b8152600401602060405180830381865afa158015610ae1573d5f803e3d5ffd5b505050506040513d601f19601f82011682018060405250810190610b059190610def565b90505f670de0b6b3a7640000610b1b8386610da6565b610b259190610dbd565b90505f6064610b35605084610da6565b610b3f9190610dbd565b905083610b54670de0b6b3a764000083610da6565b610b5e9190610dbd565b979650505050505050565b610b71610bff565b60025f80516020610e0783398151915255565b610b918383836001610c30565b610bbe57604051635274afe760e01b81526001600160a01b03841660048201526024015b60405180910390fd5b505050565b610bd1848484846001610c92565b610bf957604051635274afe760e01b81526001600160a01b0385166004820152602401610bb5565b50505050565b5f80516020610e0783398151915254600203610c2e57604051633ee5aeb560e01b815260040160405180910390fd5b565b60405163a9059cbb60e01b5f8181526001600160a01b038616600452602485905291602083604481808b5af1925060015f51148316610c86578383151615610c7a573d5f823e3d81fd5b5f873b113d1516831692505b60405250949350505050565b6040516323b872dd60e01b5f8181526001600160a01b038781166004528616602452604485905291602083606481808c5af1925060015f51148316610cee578383151615610ce2573d5f823e3d81fd5b5f883b113d1516831692505b604052505f60605295945050505050565b80356001600160a01b0381168114610d15575f80fd5b919050565b5f60208284031215610d2a575f80fd5b610d3382610cff565b9392505050565b5f60208284031215610d4a575f80fd5b5035919050565b5f8060408385031215610d62575f80fd5b610d6b83610cff565b946020939093013593505050565b634e487b7160e01b5f52601160045260245ffd5b81810381811115610da057610da0610d79565b92915050565b8082028115828204841417610da057610da0610d79565b5f82610dd757634e487b7160e01b5f52601260045260245ffd5b500490565b80820180821115610da057610da0610d79565b5f60208284031215610dff575f80fd5b505191905056fe9b779b17422d0df92223018b32b4d1fa46e071723d6817e2486d003becc55f00a2646970667358221220b254337761b6b38b0718ad4aac9ca9586ce3f3f5a1973010d01e5bebc5eb9fd464736f6c63430008180033","linkReferences":{}},"methodIdentifiers":{"LIQUIDATION_BONUS()":"3574d4c4","LIQUIDATION_THRESHOLD()":"90a8ae9b","LTV()":"62965d8e","PRECISION()":"aaf5eb68","accrueInterest(address)":"9198e515","borrow(uint256)":"c5ebeaec","borrowRate()":"c914b437","collateralToken()":"b2016bd4","deposit(uint256)":"b6b55f25","getHealthFactor(address)":"fe6bcd7c","getUserCollateral(address)":"b6f7132f","getUserDebt(address)":"e65896c9","lastBorrowTimestamp(address)":"1f243853","liquidate(address,uint256)":"bcbaf487","priceOracle()":"2630c12f","stableToken()":"a9d75b2b","totalBorrows()":"47bd3718","totalDeposits()":"7d882097","withdraw(uint256)":"2e1a7d4d"},"id":32}